{
  "contractName": "EtherlessSmart",
  "abi": [
    {
      "inputs": [],
      "payable": false,
      "stateMutability": "nonpayable",
      "type": "constructor"
    },
    {
      "anonymous": false,
      "inputs": [
        {
          "indexed": false,
          "internalType": "string",
          "name": "_name",
          "type": "string"
        },
        {
          "indexed": false,
          "internalType": "string",
          "name": "_parameters",
          "type": "string"
        }
      ],
      "name": "RemoteExec",
      "type": "event"
    },
    {
      "anonymous": false,
      "inputs": [
        {
          "indexed": false,
          "internalType": "string",
          "name": "_response",
          "type": "string"
        }
      ],
      "name": "RemoteResponse",
      "type": "event"
    },
    {
      "constant": true,
      "inputs": [
        {
          "internalType": "uint256",
          "name": "",
          "type": "uint256"
        }
      ],
      "name": "availableFunctionNames",
      "outputs": [
        {
          "internalType": "string",
          "name": "",
          "type": "string"
        }
      ],
      "payable": false,
      "stateMutability": "view",
      "type": "function"
    },
    {
      "constant": false,
      "inputs": [
        {
          "internalType": "string",
          "name": "fnName",
          "type": "string"
        },
        {
          "internalType": "string",
          "name": "paramers",
          "type": "string"
        }
      ],
      "name": "execFunctionRequest",
      "outputs": [],
      "payable": true,
      "stateMutability": "payable",
      "type": "function"
    },
    {
      "constant": true,
      "inputs": [],
      "name": "listFunctions",
      "outputs": [
        {
          "internalType": "string[]",
          "name": "functionNames",
          "type": "string[]"
        }
      ],
      "payable": false,
      "stateMutability": "view",
      "type": "function"
    },
    {
      "constant": false,
      "inputs": [
        {
          "internalType": "address payable",
          "name": "creator",
          "type": "address"
        },
        {
          "internalType": "string",
          "name": "fnName",
          "type": "string"
        },
        {
          "internalType": "string",
          "name": "description",
          "type": "string"
        },
        {
          "internalType": "string",
          "name": "prototype",
          "type": "string"
        },
        {
          "internalType": "string",
          "name": "remoteResource",
          "type": "string"
        },
        {
          "internalType": "uint256",
          "name": "cost",
          "type": "uint256"
        }
      ],
      "name": "createFunction",
      "outputs": [],
      "payable": false,
      "stateMutability": "nonpayable",
      "type": "function"
    },
    {
      "constant": false,
      "inputs": [
        {
          "internalType": "string",
          "name": "result",
          "type": "string"
        }
      ],
      "name": "execRemoteResponse",
      "outputs": [],
      "payable": false,
      "stateMutability": "nonpayable",
      "type": "function"
    },
    {
      "constant": true,
      "inputs": [
        {
          "internalType": "string",
          "name": "fnName",
          "type": "string"
        }
      ],
      "name": "costOfFunction",
      "outputs": [
        {
          "internalType": "uint256",
          "name": "cost",
          "type": "uint256"
        }
      ],
      "payable": false,
      "stateMutability": "view",
      "type": "function"
    }
  ],
  "bytecode": "0x60806040526000805534801561001457600080fd5b50611b25806100246000396000f3fe6080604052600436106100555760003560e01c80635f29eed91461005a578063799c7eea1461008357806385eafeab146100ae5780639db9887a146100eb578063ed50724a14610114578063fba7fd0a14610151575b600080fd5b34801561006657600080fd5b50610081600480360361007c91908101906112ea565b61016d565b005b34801561008f57600080fd5b506100986101cc565b6040516100a591906117ec565b60405180910390f35b3480156100ba57600080fd5b506100d560048036036100d09190810190611480565b6102b5565b6040516100e2919061180e565b60405180910390f35b3480156100f757600080fd5b50610112600480360361010d91908101906113d3565b61036e565b005b34801561012057600080fd5b5061013b600480360361013691908101906113d3565b6103a8565b6040516101489190611909565b60405180910390f35b61016b60048036036101669190810190611414565b61071e565b005b6101756110fb565b6040518060c001604052808781526020018681526020018581526020018381526020018873ffffffffffffffffffffffffffffffffffffffff1681526020018481525090506101c381610bb7565b50505050505050565b60606002805480602002602001604051908101604052809291908181526020016000905b828210156102ac578382906000526020600020018054600181600116156101000203166002900480601f0160208091040260200160405190810160405280929190818152602001828054600181600116156101000203166002900480156102985780601f1061026d57610100808354040283529160200191610298565b820191906000526020600020905b81548152906001019060200180831161027b57829003601f168201915b5050505050815260200190600101906101f0565b50505050905090565b600281815481106102c257fe5b906000526020600020016000915090508054600181600116156101000203166002900480601f0160208091040260200160405190810160405280929190818152602001828054600181600116156101000203166002900480156103665780601f1061033b57610100808354040283529160200191610366565b820191906000526020600020905b81548152906001019060200180831161034957829003601f168201915b505050505081565b7ff904772d2c2e81366850ca5369611dcaa7c65f8dcfa7fe4c3e1f0e50fa68f2638160405161039d9190611830565b60405180910390a150565b60006103b382610db9565b6103f2576040517f08c379a00000000000000000000000000000000000000000000000000000000081526004016103e9906118c9565b60405180910390fd5b6103fa6110fb565b60018360405161040a91906117b1565b90815260200160405180910390206040518060c0016040529081600082018054600181600116156101000203166002900480601f0160208091040260200160405190810160405280929190818152602001828054600181600116156101000203166002900480156104bc5780601f10610491576101008083540402835291602001916104bc565b820191906000526020600020905b81548152906001019060200180831161049f57829003601f168201915b50505050508152602001600182018054600181600116156101000203166002900480601f01602080910402602001604051908101604052809291908181526020018280546001816001161561010002031660029004801561055e5780601f106105335761010080835404028352916020019161055e565b820191906000526020600020905b81548152906001019060200180831161054157829003601f168201915b50505050508152602001600282018054600181600116156101000203166002900480601f0160208091040260200160405190810160405280929190818152602001828054600181600116156101000203166002900480156106005780601f106105d557610100808354040283529160200191610600565b820191906000526020600020905b8154815290600101906020018083116105e357829003601f168201915b50505050508152602001600382015481526020016004820160009054906101000a900473ffffffffffffffffffffffffffffffffffffffff1673ffffffffffffffffffffffffffffffffffffffff1673ffffffffffffffffffffffffffffffffffffffff168152602001600582018054600181600116156101000203166002900480601f0160208091040260200160405190810160405280929190818152602001828054600181600116156101000203166002900480156107025780601f106106d757610100808354040283529160200191610702565b820191906000526020600020905b8154815290600101906020018083116106e557829003601f168201915b505050505081525050905061071681610eb0565b915050919050565b6000815111610762576040517f08c379a0000000000000000000000000000000000000000000000000000000008152600401610759906118e9565b60405180910390fd5b61076b82610db9565b6107aa576040517f08c379a00000000000000000000000000000000000000000000000000000000081526004016107a1906118c9565b60405180910390fd5b6107b26110fb565b6001836040516107c291906117b1565b90815260200160405180910390206040518060c0016040529081600082018054600181600116156101000203166002900480601f0160208091040260200160405190810160405280929190818152602001828054600181600116156101000203166002900480156108745780601f1061084957610100808354040283529160200191610874565b820191906000526020600020905b81548152906001019060200180831161085757829003601f168201915b50505050508152602001600182018054600181600116156101000203166002900480601f0160208091040260200160405190810160405280929190818152602001828054600181600116156101000203166002900480156109165780601f106108eb57610100808354040283529160200191610916565b820191906000526020600020905b8154815290600101906020018083116108f957829003601f168201915b50505050508152602001600282018054600181600116156101000203166002900480601f0160208091040260200160405190810160405280929190818152602001828054600181600116156101000203166002900480156109b85780601f1061098d576101008083540402835291602001916109b8565b820191906000526020600020905b81548152906001019060200180831161099b57829003601f168201915b50505050508152602001600382015481526020016004820160009054906101000a900473ffffffffffffffffffffffffffffffffffffffff1673ffffffffffffffffffffffffffffffffffffffff1673ffffffffffffffffffffffffffffffffffffffff168152602001600582018054600181600116156101000203166002900480601f016020809104026020016040519081016040528092919081815260200182805460018160011615610100020316600290048015610aba5780601f10610a8f57610100808354040283529160200191610aba565b820191906000526020600020905b815481529060010190602001808311610a9d57829003601f168201915b50505050508152505090506000610ad082610eb0565b90506000349050818114610b046040518060600160405280602c8152602001611ab7602c9139610aff84610ebe565b610feb565b90610b45576040517f08c379a0000000000000000000000000000000000000000000000000000000008152600401610b3c9190611830565b60405180910390fd5b50806000808282540192505081905550610b63836080015183611017565b610ba2576040517f08c379a0000000000000000000000000000000000000000000000000000000008152600401610b99906118a9565b60405180910390fd5b610bb08360a0015185611065565b5050505050565b610bc48160000151610db9565b15610c04576040517f08c379a0000000000000000000000000000000000000000000000000000000008152600401610bfb90611889565b60405180910390fd5b8060018260000151604051610c19919061179a565b90815260200160405180910390206000820151816000019080519060200190610c43929190611147565b506020820151816001019080519060200190610c60929190611147565b506040820151816002019080519060200190610c7d929190611147565b506060820151816003015560808201518160040160006101000a81548173ffffffffffffffffffffffffffffffffffffffff021916908373ffffffffffffffffffffffffffffffffffffffff16021790555060a0820151816005019080519060200190610ceb929190611147565b50905050600281600001519080600181540180825580915050906001820390600052602060002001600090919290919091509080519060200190610d309291906111c7565b505060036000826080015173ffffffffffffffffffffffffffffffffffffffff1673ffffffffffffffffffffffffffffffffffffffff16815260200190815260200160002081600001519080600181540180825580915050906001820390600052602060002001600090919290919091509080519060200190610db49291906111c7565b505050565b6000806000905060008090505b600280549050811015610ea657610e8c60028281548110610de357fe5b906000526020600020018054600181600116156101000203166002900480601f016020809104026020016040519081016040528092919081815260200182805460018160011615610100020316600290048015610e815780601f10610e5657610100808354040283529160200191610e81565b820191906000526020600020905b815481529060010190602001808311610e6457829003601f168201915b5050505050856110a2565b91508115610e9957610ea6565b8080600101915050610dc6565b5080915050919050565b600081606001519050919050565b60606000821415610f06576040518060400160405280600181526020017f30000000000000000000000000000000000000000000000000000000000000008152509050610fe6565b600082905060005b60008214610f30578080600101915050600a8281610f2857fe5b049150610f0e565b6060816040519080825280601f01601f191660200182016040528015610f655781602001600182028038833980820191505090505b50905060006001830390505b60008614610fde57600a8681610f8357fe5b0660300160f81b82828060019003935081518110610f9d57fe5b60200101907effffffffffffffffffffffffffffffffffffffffffffffffffffffffffffff1916908160001a905350600a8681610fd657fe5b049550610f71565b819450505050505b919050565b606082826040516020016110009291906117c8565b604051602081830303815290604052905092915050565b60008160008082825403925050819055508273ffffffffffffffffffffffffffffffffffffffff166108fc839081150290604051600060405180830381858888f19350505050905092915050565b7fd7966d18fe92468bade012e2eca146f932653468dd52a5bccc64dcc6ffeefefc8282604051611096929190611852565b60405180910390a15050565b6000816040516020016110b591906117b1565b60405160208183030381529060405280519060200120836040516020016110dc91906117b1565b6040516020818303038152906040528051906020012014905092915050565b6040518060c0016040528060608152602001606081526020016060815260200160008152602001600073ffffffffffffffffffffffffffffffffffffffff168152602001606081525090565b828054600181600116156101000203166002900490600052602060002090601f016020900481019282601f1061118857805160ff19168380011785556111b6565b828001600101855582156111b6579182015b828111156111b557825182559160200191906001019061119a565b5b5090506111c39190611247565b5090565b828054600181600116156101000203166002900490600052602060002090601f016020900481019282601f1061120857805160ff1916838001178555611236565b82800160010185558215611236579182015b8281111561123557825182559160200191906001019061121a565b5b5090506112439190611247565b5090565b61126991905b8082111561126557600081600090555060010161124d565b5090565b90565b60008135905061127b81611a88565b92915050565b600082601f83011261129257600080fd5b81356112a56112a082611951565b611924565b915080825260208301602083018583830111156112c157600080fd5b6112cc838284611a35565b50505092915050565b6000813590506112e481611a9f565b92915050565b60008060008060008060c0878903121561130357600080fd5b600061131189828a0161126c565b965050602087013567ffffffffffffffff81111561132e57600080fd5b61133a89828a01611281565b955050604087013567ffffffffffffffff81111561135757600080fd5b61136389828a01611281565b945050606087013567ffffffffffffffff81111561138057600080fd5b61138c89828a01611281565b935050608087013567ffffffffffffffff8111156113a957600080fd5b6113b589828a01611281565b92505060a06113c689828a016112d5565b9150509295509295509295565b6000602082840312156113e557600080fd5b600082013567ffffffffffffffff8111156113ff57600080fd5b61140b84828501611281565b91505092915050565b6000806040838503121561142757600080fd5b600083013567ffffffffffffffff81111561144157600080fd5b61144d85828601611281565b925050602083013567ffffffffffffffff81111561146a57600080fd5b61147685828601611281565b9150509250929050565b60006020828403121561149257600080fd5b60006114a0848285016112d5565b91505092915050565b60006114b5838361159c565b905092915050565b60006114c88261198d565b6114d281856119bb565b9350836020820285016114e48561197d565b8060005b85811015611520578484038952815161150185826114a9565b945061150c836119ae565b925060208a019950506001810190506114e8565b50829750879550505050505092915050565b600061153d826119a3565b61154781856119dd565b9350611557818560208601611a44565b61156081611a77565b840191505092915050565b6000611576826119a3565b61158081856119ee565b9350611590818560208601611a44565b80840191505092915050565b60006115a782611998565b6115b181856119cc565b93506115c1818560208601611a44565b6115ca81611a77565b840191505092915050565b60006115e082611998565b6115ea81856119dd565b93506115fa818560208601611a44565b61160381611a77565b840191505092915050565b600061161982611998565b61162381856119ee565b9350611633818560208601611a44565b80840191505092915050565b600061164c602c836119dd565b91507f46756e6374696f6e20616c726561647920657869747320616e642063616e6e6f60008301527f74206265206372656174656400000000000000000000000000000000000000006020830152604082019050919050565b60006116b2601d836119dd565b91507f556e61626c6520746f2070726f63657373207472616e73616374696f6e0000006000830152602082019050919050565b60006116f26012836119dd565b91507f46756e6374696f6e206e6f7420666f756e6400000000000000000000000000006000830152602082019050919050565b6000611732602b836119dd565b91507f496e76616c696420706172616d6572732073657269616c697a6174696f6e202860008301527f6c656e677468203d2030290000000000000000000000000000000000000000006020830152604082019050919050565b61179481611a2b565b82525050565b60006117a6828461160e565b915081905092915050565b60006117bd828461156b565b915081905092915050565b60006117d4828561156b565b91506117e0828461156b565b91508190509392505050565b6000602082019050818103600083015261180681846114bd565b905092915050565b6000602082019050818103600083015261182881846115d5565b905092915050565b6000602082019050818103600083015261184a8184611532565b905092915050565b6000604082019050818103600083015261186c8185611532565b905081810360208301526118808184611532565b90509392505050565b600060208201905081810360008301526118a28161163f565b9050919050565b600060208201905081810360008301526118c2816116a5565b9050919050565b600060208201905081810360008301526118e2816116e5565b9050919050565b6000602082019050818103600083015261190281611725565b9050919050565b600060208201905061191e600083018461178b565b92915050565b6000604051905081810181811067ffffffffffffffff8211171561194757600080fd5b8060405250919050565b600067ffffffffffffffff82111561196857600080fd5b601f19601f8301169050602081019050919050565b6000819050602082019050919050565b600081519050919050565b600081519050919050565b600081519050919050565b6000602082019050919050565b600082825260208201905092915050565b600082825260208201905092915050565b600082825260208201905092915050565b600081905092915050565b6000611a0482611a0b565b9050919050565b600073ffffffffffffffffffffffffffffffffffffffff82169050919050565b6000819050919050565b82818337600083830152505050565b60005b83811015611a62578082015181840152602081019050611a47565b83811115611a71576000848401525b50505050565b6000601f19601f8301169050919050565b611a91816119f9565b8114611a9c57600080fd5b50565b611aa881611a2b565b8114611ab357600080fd5b5056fe496e636f7272656374207472616e73616374696f6e20616d6f756e742073656e742062792063616c6c657220a365627a7a723158202330b6532d4d36b1ec0485bc02f3ddc2358388243006c9f5127ed20259c22bb16c6578706572696d656e74616cf564736f6c634300050c0040",
  "source": "pragma solidity >=0.5.0 <0.7.0;\npragma experimental ABIEncoderV2;\n\ncontract EtherlessSmart {\n    constructor() public {}\n\n    /* DATA */\n    struct Function {\n        string name;\n        string description;\n        string prototype;\n        uint256 cost; // in wei\n        address payable owner;\n        string remoteResource;\n    }\n\n    uint256 constant ServiceFee = 1; // can be declared later as percentage\n    uint256 balance = 0;\n\n    mapping(string => Function) private deployedFunctions; // <nome funzione> -> <Function>\n    string[] public availableFunctionNames;\n\n    mapping(address => string[]) private userFunctionNames;\n\n    /* EVENTS */\n    event RemoteExec(string _name, string _parameters);\n    event RemoteResponse(string _response);\n\n    // require, assert, revert\n\n    /* PUBLIC INTERFACES */\n    function execFunctionRequest(string memory fnName, string memory paramers)\n        public\n        payable\n    {\n        require(\n            bytes(paramers).length > 0,\n            \"Invalid paramers serialization (length = 0)\"\n        ); // length conversion valid only for some encodings\n        // check if function with given name exists\n        if (!existsFunction(fnName)) {\n            revert(\"Function not found\");\n        }\n        // get function data\n        Function memory fnRequested = deployedFunctions[fnName];\n\n        // check if correct ether amount sent by caller\n        uint256 fnCostToRun = costOfFunction(fnRequested);\n        uint256 amountSentByCaller = msg.value; // rappresenta il quantitativo di soldi inviati dall'utente a questa funzione\n        require(\n            amountSentByCaller == fnCostToRun,\n            concat(\n                \"Incorrect transaction amount sent by caller \",\n                uint2str(amountSentByCaller)\n            )\n        );\n        balance += amountSentByCaller;\n        if (!moveCurrencies(fnRequested.owner, fnCostToRun)) {\n            revert(\"Unable to process transaction\");\n        }\n\n        // pretend to be calling function from aws\n        execRemoteRequest(fnRequested.remoteResource, paramers);\n        // add timer or something that will trigger \"Unable to call remote execution\"\n        /*bool remoteTriggerSuccess = true;\n        if (!remoteTriggerSuccess) {\n            revert(\"Unable to call remote resource execution\");\n        }*/\n    }\n\n    function listFunctions()\n        public\n        view\n        returns (string[] memory functionNames)\n    {\n        return availableFunctionNames;\n    }\n\n    // TODO: remove creator address (taken from caller), kept for easy development\n    function createFunction(\n        address payable creator,\n        string memory fnName,\n        string memory description,\n        string memory prototype,\n        string memory remoteResource,\n        uint256 cost\n    ) public {\n        // TODO: add paramers checks\n        // require(cost <= 0, \"Invalid cost, cost must be greater than 0\");\n\n        Function memory newFn = Function({\n            name: fnName,\n            description: description,\n            prototype: prototype,\n            cost: cost,\n            owner: creator,\n            remoteResource: remoteResource\n        });\n        storeFunction(newFn);\n    }\n\n    function costOfFunction(string memory fnName)\n        public\n        view\n        returns (uint256 cost)\n    {\n        if (!existsFunction(fnName)) {\n            revert(\"Function not found\");\n        }\n        Function memory fnRequested = deployedFunctions[fnName];\n        return costOfFunction(fnRequested);\n    }\n\n    // send event that will trigger remote execution\n    function execRemoteRequest(string memory remoteName, string memory paramers)\n        private\n    {\n        emit RemoteExec(remoteName, paramers);\n    }\n\n    // remove execution will return result via this call\n    // result will be emitted to eth-cli\n    function execRemoteResponse(string memory result) public {\n        emit RemoteResponse(result);\n    }\n\n    /* PRIVATE FUNCTIONS */\n    function costOfFunction(Function memory fn)\n        private\n        view\n        returns (uint256 cost)\n    {\n        return fn.cost;\n    }\n\n    // check if functino with given name exists\n    function existsFunction(string memory named) private view returns (bool) {\n        bool found = false;\n        for (uint256 i = 0; i < availableFunctionNames.length; i++) {\n            found = (compareStrings(availableFunctionNames[i], named));\n            if (found) break;\n        }\n        return found;\n    }\n\n    function storeFunction(Function memory fn) private {\n        // check if function already exists before adding it to the availableFunctionNames\n        if (existsFunction(fn.name)) {\n            revert(\"Function already exits and cannot be created\");\n        }\n        // check if another funcion is already linked to remote resource\n        deployedFunctions[fn.name] = fn;\n        availableFunctionNames.push(fn.name);\n        userFunctionNames[fn.owner].push(fn.name);\n    }\n\n    // calculates how much profit for the function creator based on how much Ethreless keeps for itself\n    function profitPerFunctionRun(uint256 fnCost)\n        private\n        view\n        returns (uint256 profit)\n    {\n        return fnCost - ServiceFee;\n    }\n\n    // Eth exchange\n    function moveCurrencies(address payable receiver, uint256 amount)\n        private\n        returns (bool success)\n    {\n        balance -= amount;\n        return receiver.send(amount);\n    }\n\n    /* UTILITIES */\n    function compareStrings(string memory a, string memory b)\n        private\n        view\n        returns (bool)\n    {\n        return (keccak256(abi.encodePacked((a))) ==\n            keccak256(abi.encodePacked((b))));\n    }\n\n    function concat(string memory a, string memory b)\n        internal\n        pure\n        returns (string memory)\n    {\n        return string(abi.encodePacked(a, b));\n    }\n    function uint2str(uint256 _i)\n        internal\n        pure\n        returns (string memory _uintAsString)\n    {\n        if (_i == 0) {\n            return \"0\";\n        }\n        uint256 j = _i;\n        uint256 len;\n        while (j != 0) {\n            len++;\n            j /= 10;\n        }\n        bytes memory bstr = new bytes(len);\n        uint256 k = len - 1;\n        while (_i != 0) {\n            bstr[k--] = bytes1(uint8(48 + (_i % 10)));\n            _i /= 10;\n        }\n        return string(bstr);\n    }\n}\n",
  "sourcePath": "/home/gianm/SWE/etherless-smart/contracts/EtherlessSmart.sol",
  "compiler": {
    "name": "solc",
    "version": "0.5.12+commit.7709ece9.Emscripten.clang"
  },
  "schemaVersion": "3.0.23",
  "updatedAt": "2020-02-22T17:32:04.395Z",
  "networkType": "ethereum",
  "devdoc": {
    "methods": {}
  },
  "userdoc": {
    "methods": {}
  }
}